{
  "address": "0x608660bfD34f8DfdDA856b1f0293d43e7B71eAE1",
  "abi": [
    {
      "inputs": [
        {
          "internalType": "uint256",
          "name": "minimumDonation",
          "type": "uint256"
        }
      ],
      "stateMutability": "nonpayable",
      "type": "constructor"
    },
    {
      "inputs": [],
      "name": "Donate__NotEnoughETHDonated",
      "type": "error"
    },
    {
      "inputs": [],
      "name": "donate",
      "outputs": [],
      "stateMutability": "payable",
      "type": "function"
    },
    {
      "inputs": [
        {
          "internalType": "uint256",
          "name": "index",
          "type": "uint256"
        }
      ],
      "name": "getDonor",
      "outputs": [
        {
          "internalType": "address",
          "name": "",
          "type": "address"
        }
      ],
      "stateMutability": "view",
      "type": "function"
    },
    {
      "inputs": [],
      "name": "getMinimumDonation",
      "outputs": [
        {
          "internalType": "uint256",
          "name": "",
          "type": "uint256"
        }
      ],
      "stateMutability": "view",
      "type": "function"
    },
    {
      "inputs": [],
      "name": "getTotalDonation",
      "outputs": [
        {
          "internalType": "uint256",
          "name": "",
          "type": "uint256"
        }
      ],
      "stateMutability": "view",
      "type": "function"
    },
    {
      "inputs": [],
      "name": "withdraw",
      "outputs": [],
      "stateMutability": "payable",
      "type": "function"
    }
  ],
  "transactionHash": "0x3c786249e13d914c8724c69760f4759d8c04f8f3450225aabf4ec88aaedcfdb5",
  "args": [
    "10000000000000000"
  ],
  "numDeployments": 1,
  "solcInputHash": "95c65cd5d5b86a5d032856ed02001556",
  "bytecode": "0x60c060405234801561001057600080fd5b50604051610605380380610605833981810160405281019061003291906100b2565b3373ffffffffffffffffffffffffffffffffffffffff1660a08173ffffffffffffffffffffffffffffffffffffffff1660601b815250508060808181525050506100df565b600080fd5b6000819050919050565b61008f8161007c565b811461009a57600080fd5b50565b6000815190506100ac81610086565b92915050565b6000602082840312156100c8576100c7610077565b5b60006100d68482850161009d565b91505092915050565b60805160a05160601c6104fa61010b60003960005050600081816101fa015261022001526104fa6000f3fe60806040526004361061004a5760003560e01c80633ccfd60b1461004f57806356e23eb1146100595780636136a90614610084578063d76a9936146100c1578063ed88c68e146100ec575b600080fd5b6100576100f6565b005b34801561006557600080fd5b5061006e6101a5565b60405161007b91906102fd565b60405180910390f35b34801561009057600080fd5b506100ab60048036038101906100a69190610349565b6101af565b6040516100b891906103b7565b60405180910390f35b3480156100cd57600080fd5b506100d66101f6565b6040516100e391906102fd565b60405180910390f35b6100f461021e565b005b60003373ffffffffffffffffffffffffffffffffffffffff164760405161011c90610403565b60006040518083038185875af1925050503d8060008114610159576040519150601f19603f3d011682016040523d82523d6000602084013e61015e565b606091505b50509050806101a2576040517f08c379a000000000000000000000000000000000000000000000000000000000815260040161019990610475565b60405180910390fd5b50565b6000600154905090565b60008082815481106101c4576101c3610495565b5b9060005260206000200160009054906101000a900473ffffffffffffffffffffffffffffffffffffffff169050919050565b60007f0000000000000000000000000000000000000000000000000000000000000000905090565b7f0000000000000000000000000000000000000000000000000000000000000000341015610278576040517f31bbd2eb00000000000000000000000000000000000000000000000000000000815260040160405180910390fd5b6000339080600181540180825580915050600190039060005260206000200160009091909190916101000a81548173ffffffffffffffffffffffffffffffffffffffff021916908373ffffffffffffffffffffffffffffffffffffffff16021790555047600181905550565b6000819050919050565b6102f7816102e4565b82525050565b600060208201905061031260008301846102ee565b92915050565b600080fd5b610326816102e4565b811461033157600080fd5b50565b6000813590506103438161031d565b92915050565b60006020828403121561035f5761035e610318565b5b600061036d84828501610334565b91505092915050565b600073ffffffffffffffffffffffffffffffffffffffff82169050919050565b60006103a182610376565b9050919050565b6103b181610396565b82525050565b60006020820190506103cc60008301846103a8565b92915050565b600081905092915050565b50565b60006103ed6000836103d2565b91506103f8826103dd565b600082019050919050565b600061040e826103e0565b9150819050919050565b600082825260208201905092915050565b7f43616c6c206661696c6564000000000000000000000000000000000000000000600082015250565b600061045f600b83610418565b915061046a82610429565b602082019050919050565b6000602082019050818103600083015261048e81610452565b9050919050565b7f4e487b7100000000000000000000000000000000000000000000000000000000600052603260045260246000fdfea26469706673582212202b7010d8293817b62659978bad0c7bbae955198091e3c96722f1b4fb3939db5d64736f6c63430008080033",
  "devdoc": {
    "kind": "dev",
    "methods": {},
    "version": 1
  },
  "userdoc": {
    "kind": "user",
    "methods": {},
    "version": 1
  },
  "storageLayout": {
    "storage": [
      {
        "astId": 10,
        "contract": "contracts/Donate.sol:Donate",
        "label": "s_donors",
        "offset": 0,
        "slot": "0",
        "type": "t_array(t_address_payable)dyn_storage"
      },
      {
        "astId": 14,
        "contract": "contracts/Donate.sol:Donate",
        "label": "s_totalAmountDonated",
        "offset": 0,
        "slot": "1",
        "type": "t_uint256"
      }
    ],
    "types": {
      "t_address_payable": {
        "encoding": "inplace",
        "label": "address payable",
        "numberOfBytes": "20"
      },
      "t_array(t_address_payable)dyn_storage": {
        "base": "t_address_payable",
        "encoding": "dynamic_array",
        "label": "address payable[]",
        "numberOfBytes": "32"
      },
      "t_uint256": {
        "encoding": "inplace",
        "label": "uint256",
        "numberOfBytes": "32"
      }
    }
  }
}